:060000000A128A110C280F
:10000800FE00030EF0000A08F1000A168A11332DCB
:100018000A128A110F288313C630FD001430FE001F
:10002800B130FF00A03084000A168A1149240A1250
:100038008A1183160313C601C701C801C901CA0181
:10004800CB01CC01CD01CE0183120313E901EA01F2
:10005800F901FA01FB0183010A128A15262C831281
:100068000313E4000A128A1509200A128A11333090
:10007800831603134406031D422843280A2A0A1636
:100088008A1121240A128A113B3083120313A0001B
:100098009130A1008030A2000A168A1100250A12A8
:1000A8008A11831203136A08D8005807A03E8400F7
:1000B80083130008A000840A00088403A10080308C
:1000C800A2000A168A1100250A128A1135308312F5
:1000D8000313A0009130A100C030A2000A168A11B3
:1000E80000250A128A11C630F8000A30F2000030E2
:1000F800F3007A0883120313D800D9015808F400D2
:100108005908F5000A168A1182260A128A117208FD
:10011800303E0A168A1158240A128A11C730F8008C
:100128000A30F2000030F3007A0883120313D80073
:10013800D9015808F4005908F5000A168A112B2627
:100148000A128A117208303E0A168A1158240A12B5
:100158008A11C830F8003A300A168A1158240A124F
:100168008A11C930F8000A30F2000030F3007B0829
:1001780083120313D800D9015808F4005908F50070
:100188000A168A1182260A128A117208303E0A1645
:100198008A1158240A128A11CA30F8000A30F2006B
:1001A8000030F3007B0883120313D800D9015808E4
:1001B800F4005908F5000A168A112B260A128A112A
:1001C8007208303E0A168A1158240A128A11FF3022
:1001D80083160313C400333083120313DA00BB30D1
:1001E800D900DF30D800D80BF728D90BF728DA0B5D
:1001F800F7280A168A1121240A128A11C830831294
:100208000313A0009030A1008030A2000A168A11C2
:1002180000250A128A11533083120313A00091306B
:10022800A100C030A2000A168A1100250A128A11FC
:100238009C3083120313A0009030A1009030A200DC
:100248000A168A1100250A128A11D2308312031362
:10025800A0009030A100D030A2000A168A11002513
:100268000A128A113C30F2007A080A168A113224DE
:100278000A128A117B0783160313CA00F90079084A
:1002880083120313D800D901DA01DB015B08F500FA
:100298005A08F4005908F3005808F20001300A120D
:1002A8008A1518210A128A11750883120313B100DE
:1002B8007408B0007308AF007208AE003E30AD009D
:1002C800EB30AC008530AB001F30AA000A128A114F
:1002D80021240A128A11831203132D08C7002C083F
:1002E800C6002B08C5002A08C4000A168A11E7268A
:1002F8000A128A1183120313440883160313CD00CC
:10030800790883120313D800D901DA01DB015B08ED
:10031800F5005A08F4005908F3005808F2000130B3
:100328000A128A1518210A128A11750883120313F2
:10033800B1007408B0007308AF007208AE003D3019
:10034800AD00F530AC00C230AB008F30AA000A1205
:100358008A1121240A128A11831203132D08C70057
:100368002C08C6002B08C5002A08C4000A168A11E2
:10037800E7260A128A11831203134408831603130B
:10038800CC00790883120313D800D901DA01DB0104
:100398005B08F5005A08F4005908F3005808F20001
:1003A80001300A128A1518210A128A117508831257
:1003B8000313B1007408B0007308AF007208AE00F0
:1003C8003E30AD00D730AC000A30AB003D30AA005B
:1003D8000A128A1121240A128A11831203132D0882
:1003E800C7002C08C6002B08C5002A08C4000A1636
:1003F8008A11E7260A128A11831203134408831606
:100408000313CB0083120313121507151F30831231
:100418006406031D102A112A172A121107114430E5
:1004280083160313C5003C30F2007A080A168A11B5
:1004380032240A128A117B07F90008308312031349
:100448006A020318282A292A982A831603134A08B5
:1004580083120313D800D9015908DB00831603134C
:100468004D08831203135802DA00031CDB035B08F0
:10047800803A803C031D422A5A087902031C452A07
:10048800462A542AB83083120313A0009030A100E2
:100498008A30A2000A168A1100250A128A11652BD1
:1004A800831603134A0883120313D800D901590885
:1004B800DB00831603134D08831203135802DA0076
:1004C800031CDB035B08DD00831603134B08831250
:1004D80003135A02DC00031CDD035D08803A803CEC
:1004E800031D782A5C087902031C7B2A7C2A8A2A45
:1004F800413083120313A0009130A1008A30A2007A
:100508000A168A1100250A128A11652B5D3083129A
:100518000313A0009130A1008A30A2000A168A11A4
:1005280000250A128A11652B08306A06031D9D2AC8
:100538009E2A482B7908D800D901DA01DB015B082B
:10054800F5005A08F4005908F3005808F200013081
:100558000A128A1518210A128A11750883120313C0
:10056800CF007408CE007308CD007208CC00831643
:1005780003134A0883120313DC00DD01DE01DF01E7
:100588005F08F5005E08F4005D08F3005C08F200FF
:1005980001300A128A1518210A128A117508831265
:1005A8000313CB007408CA007308C9007208C80096
:1005B800831603134A0883120313E000E101E201E2
:1005C800E3016308F5006208F4006108F3006008BD
:1005D800F20001300A128A1518210A128A117508C8
:1005E80083120313B1007408B0007308AF007208D7
:1005F800AE003E30AD00CC30AC00CC30AB00CD30DE
:10060800AA000A128A1121240A128A1183120313DA
:100618002D08C7002C08C6002B08C5002A08C400EE
:100628000A168A118D240A128A11831203134708A5
:10063800D3004608D2004508D1004408D0000A1269
:100648008A1574200A128A11031C2B2B2C2B3A2B87
:10065800413083120313A0009130A1008A30A20018
:100668000A168A1100250A128A11652B5D30831239
:100678000313A0009130A1008A30A2000A168A1143
:1006880000250A128A11652B09306A06031D4D2BB5
:100698004E2B5A2B5D30A0009130A1008A30A20069
:1006A8000A168A1100250A128A11652BB830A00093
:1006B8009030A1008A30A2000A168A1100250A1279
:1006C8008A11C630F8000A30F2000030F3007A08C8
:1006D80083120313D800D9015808F4005908F5000B
:1006E8000A168A1182260A128A117208303E0A16E0
:1006F8008A1158240A128A11C730F8000A30F20009
:100708000030F3007A0883120313D800D90158087F
:10071800F4005908F5000A168A112B260A128A11C4
:100728007208303E0A168A1158240A128A11C830F3
:10073800F8003A300A168A1158240A128A11C93068
:10074800F8000A30F2000030F3007B08831203132C
:10075800D800D9015808F4005908F5000A168A117A
:1007680082260A128A117208303E0A168A11582403
:100778000A128A11CA30F8000A30F2000030F30079
:100788007B0883120313D800D9015808F4005908CC
:10079800F5000A168A112B260A128A117208303EB1
:1007A8000A168A1158240A128A117A08031DDD2BA9
:1007B800DE2B202C7B08031DE22BE32B202C0A16B2
:1007C8008A1121240A128A1183120313071187142C
:1007D8000030A0009030A1008030A2000A168A11D3
:1007E80000250A128A11403083120313A0009030AA
:1007F800A100C030A2000A168A1100250A128A1127
:100808004D3083120313DA001930D9004F30D80065
:10081800D80B0C2CD90B0C2CDA0B0C2C83120313D1
:100828008710013083160313C5001130C4000A165F
:100838008A1121240A128A110800831203132D0831
:10084800B7008030B7052D08B2003207BD00AC1FD5
:100858002E2C2F2C302C3D143D080319342C352C0C
:10086800442C3D0A031D392C3A2C422C0030AD0093
:100878000030AC000030AB000030AA00AC174C2CA4
:100888000030AD000030AC000030AB000030AA00F2
:1008980031088039B7063108B2003207B800B01FF6
:1008A800562C572C582C3814380803195C2C5D2CFE
:1008B8006C2C380A031D612C622C6A2C0030B100A4
:1008C8000030B0000030AF000030AE00B017742C1C
:1008D8000030B1000030B0000030AF000030AE0092
:1008E80038080319782C792C7E2C3D08031D7D2CA3
:1008F8007E2C872C0030AD000030AC000030AB00FF
:100908000030AA00622F2A08F20030080A168A115D
:10091800D7240A128A11730883120313C3007208BA
:10092800C2004208B200B301B401B5013508BC00E9
:100938003408BB003308BA003208B9004308B200D3
:10094800B301B401B5013508C1003408C00033084B
:10095800BF003208BE002B08F2002F080A168A11C1
:10096800D7240A128A11730883120313C30072086A
:10097800C2004208B200B301B401B5013208B90798
:10098800330803110318013E0319CB2CBA073408A6
:1009980003110318013E0319D22CBB0735080311B4
:1009A8000318013E0319D92CBC074308B200B30150
:1009B800B401B5013208BE07330803110318013E1C
:1009C8000319E72CBF07340803110318013E031964
:1009D800EE2CC007350803110318013E0319F52C46
:1009E800C1072C08F2002E080A168A11D7240A1209
:1009F8008A11730883120313C3007208C2004208E5
:100A0800B200B301B401B5013208B90733080311C4
:100A18000318013E0319112DBA07340803110318EE
:100A2800013E0319182DBB07350803110318013EB1
:100A380003191F2DBC074308B200B301B401B50167
:100A48003208BE07330803110318013E03192D2D80
:100A5800BF07340803110318013E0319342DC007DA
:100A6800350803110318013E03193B2DC10708304F
:100A7800B2000310B90DBA0DBB0DBC0DB20B3D2D64
:100A88002B08F2002E080A168A11D7240A128A1196
:100A9800730883120313C3007208C2004208B2002D
:100AA8004308B300B401B5013208B907330803118C
:100AB8000318013E0319612DBA07340803110318FE
:100AC800013E0319682DBB07350803110318013EC1
:100AD80003196F2DBC072A08F2002F080A168A117D
:100AE800D7240A128A11730883120313C3007208E9
:100AF800C2004208B2004308B300B401B50132088D
:100B0800B907330803110318013E03198C2DBA07DE
:100B1800340803110318013E0319932DBB07350848
:100B280003110318013E03199A2DBC070830B200BF
:100B38000310B90DBA0DBB0DBC0DB20B9C2D2A08C4
:100B4800F2002E080A168A11D7240A128A1173088D
:100B580083120313C3007208C2004208B20043089C
:100B6800B300B401B5013208B907330803110318FB
:100B7800013E0319C02DBA07340803110318013EBA
:100B88000319C72DBB07350803110318013E0319C4
:100B9800CE2DBC072B08F20030080A168A11D7247C
:100BA8000A128A11730883120313C3007208C20061
:100BB8004208B2004308B300B401B5013208BE07C9
:100BC800330803110318013E0319EB2DBF0734083E
:100BD80003110318013E0319F22DC007350803114C
:100BE8000318013E0319F92DC1072C08F2002F083C
:100BF8000A168A11D7240A128A117308831203135A
:100C0800C3007208C2004208B2004308B300B4012E
:100C1800B5013208BE07330803110318013E031952
:100C2800162EBF07340803110318013E03191D2EA1
:100C3800C007350803110318013E0319242EC10704
:100C48002C08F20030080A168A11D7240A128A11D1
:100C5800730883120313C3007208C2004208B2006B
:100C68004308B300B401B50108300310B20DB30D49
:100C7800B40DB50DFF3E031D392E3208BE073308EB
:100C880003110318013E03194A2EBF073408031144
:100C98000318013E0319512EC00735080311031824
:100CA800013E0319582EC1073908B2003A08B300AB
:100CB8003B08B4003C08B50018300310B50CB40C60
:100CC800B30CB20CFF3E031D612E3208BE07330879
:100CD80003110318013E0319722EBF0734080311CC
:100CE8000318013E0319792EC007350803110318AC
:100CF800013E0319802EC1070830B2000310B90D58
:100D0800BA0DBB0DBC0DB20B822E3D083807B200E0
:100D1800B301B30D3208823EC20033080318013E06
:100D2800FF3EC300B42E0130B2000310BE0DBF0D4C
:100D3800C00DC10DB20B992EBC1FA32EA42EA52E3B
:100D48003E140130B2000310B90DBA0DBB0DBC0D35
:100D5800B20BA72EFF30C2070318C30AFF30C30720
:100D6800C01FB72EB82E972EB801BC1FBC2EBD2EA3
:100D7800D92EFF303905B200FF303A05B300FF30F5
:100D88003B05B4007F303C05B50035083404330416
:100D980032040319D02ED12ED42E0130B800D92E0A
:100DA8003E1CD72ED82ED92ED12E38080319DD2E69
:100DB800DE2E0F2F0130BE07003003180130BF07A9
:100DC800003003180130C007003003180130C10794
:100DD800411CEF2EF02E0F2F3E08B2003F08B30043
:100DE8004008B4004108B5000130B600350DB50C17
:100DF800B40CB30CB20CB60BFA2E3508C10034088B
:100E0800C0003308BF003208BE000130C207031813
:100E1800C30A0030C3074308803AFF0080307F02CE
:100E2800031D182FFF304202031C1B2F1C2F272FD6
:100E38007F3083120313C1008030C0000030BF0030
:100E48000030BE00582F831203134308803AFF0076
:100E580080307F02031D322F013042020318352FE4
:100E6800362F422F003083120313C1000030C00018
:100E78000030BF000030BE00B701582F83120313A3
:100E88004208BD00FF30BE05FF30BF057F30C005FA
:100E98000030C1053D1C512F522F532FC0173D085C
:100EA800B2000310320CC1003708C1044108AD007C
:100EB8004008AC003F08AB003E08AA0008008312B7
:100EC8000313A801A9012808803EF800FF300A167C
:100ED8008A1158240A128A11033083120313A700B7
:100EE8008A30A6005530A500A50B782FA60B782FC1
:100EF800A70B782F013083120313A8070318A90A38
:100F08000030A90700302902103003192802031CF9
:100F18008E2F8F2F672F8430A0009030A100C13012
:100F2800A2000A168A1100250A128A11213083129A
:100F38000313A0009030A1009130A2000A168A1174
:100F480000250A128A1183120313AA01AB012A0889
:100F5800D03EF800FF300A168A1158240A128A1166
:100F6800033083120313A7008A30A6005530A5006A
:100F7800A50BBC2FA60BBC2FA70BBC2F01308312CF
:100F88000313AA070318AB0A0030AB0700302B0283
:100F9800103003192A02031CD22FD32FAB2F1A307B
:100FA80083120313A7005E30A6006D30A500A50BC1
:100FB800DB2FA60BDB2FA70BDB2FE22F08000A166F
:100FC8008A110A240A128A110A128A1503200A129F
:100FD8008A110A168A1115240A128A118B170B17FF
:100FE8008316031387100711831203138710071141
:020FF8000800EF
:101006008316031306083F3886000800831203136D
:1010160006180E280F2873280711121187140A16AE
:101026008A1121240A128A156A3083120313A0003A
:101036009030A1008030A2000A168A1100250A12FB
:101046008A15313083120313A0009030A100C030FE
:10105600A2000A168A1100250A128A1583120313A2
:10106600061C3628372831280715121587100A1648
:101076008A1121240A128A15C83083120313A0008C
:101086009030A1008030A2000A168A1100250A12AB
:101096008A15533083120313A0009130A100C0308B
:1010A600A2000A168A1100250A128A159C3083129C
:1010B6000313A0009030A1009030A2000A168A11F6
:1010C60000250A128A15D23083120313A00090302D
:1010D600A100D030A2000A168A1100250A128A152C
:1010E60008000030831203134C05D40000304D0570
:1010F600D50080304E05D6007F304F05D700570803
:10110600560455045404031D89288A289228003061
:10111600CF000030CE000030CD000030CC000030D3
:101126005005D40000305105D50080305205D60058
:101136007F305305D7005708560455045404031D41
:10114600A528A628AE280030D3000030D2000030F3
:10115600D1000030D000CF1FB128B228D6280030E9
:10116600D4000030D5000030D6008030D7004C08BF
:10117600D4024D08031C4D0FC128C228D5024E08C3
:10118600031C4E0FC728C828D6024F08031C4F0F52
:10119600CD28CE28D7025708CF005608CE005508CE
:1011A600CD005408CC00D31FD928DA28FE280030F9
:1011B600D4000030D5000030D6008030D70050086B
:1011C600D4025108031C510FE928EA28D502520817
:1011D600031C520FEF28F028D6025308031C530FA6
:1011E600F528F628D7025708D3005608D200550826
:1011F600D1005408D0008030CF068030D306530883
:101206004F02031D102952084E02031D10295108D2
:101216004D02031D102950084C02031813291429E6
:101226001629031017290314080083120313A400B8
:10123600240803191F2920293429F51F23292429C5
:1012460034297209A6007309A7007409A800750954
:10125600A900A60A0319A70A0319A80A0319A90AC5
:101266003C297508A9007408A8007308A70072082D
:10127600A6007508740473047204031D43294429E7
:101286004D290030F5000030F4000030F300003046
:10129600F200CD299630A5005B290130A507013063
:1012A6000310A90CA80CA70CA60CFF3E031D53297E
:1012B600FE302905031D6029612950297B2901304B
:1012C600A5070130A607003003180130A707003034
:1012D60003180130A807003003180130A9070130B0
:1012E6000310A90CA80CA70CA60CFF3E031D73291E
:1012F600FF302905031D8029812962298D290130A6
:10130600A5020130A0000310A60DA70DA80DA90D7A
:10131600A00B8629A81B902991299729023025021E
:10132600031896299729822925189A299B29A329E2
:10133600FF30A605FF30A7057F30A805FF30A905B9
:101346000310A50C2508A000A101A201A3011830D5
:101356000310A00DA10DA20DA30DFF3E031DAB2989
:101366002008A6042108A7042208A8042308A90423
:1013760024080319BF29C029C529F51FC329C42973
:10138600C529A9172908F5002808F4002708F3003D
:101396002608F200080083120313A70011308316F3
:1013A60003134406031DD829D929E2290A168A11EE
:1013B60021240A128A15FF3083160313C40037301E
:1013C600831203132706031DE929EA29FA290A16B7
:1013D6008A1121240A128A15013083120313EA079F
:1013E6000C306A06031DF829F929FA29EA01113099
:1013F600A0009030A1008030A2000A168A110025B4
:101406000A128A15C030F8002A300A168A115824A2
:101416000A128A150A30831203136A020318142A61
:10142600152A532A6A08A5002507A03E84008313BF
:101436000008A000840A00088403A100C130A200AD
:101446000A168A1100250A128A15831203136A08DE
:10145600A5002507A23E840083130008A000840A85
:1014660000088403A1009130A2000A168A11002503
:101476000A128A15831203136A08A5002507A43EDB
:10148600840083130008A000840A00088403A100D6
:10149600D130A2000A168A1100250A128A15D42A0A
:1014A6000A306A06031D582A592A952A6A08A50091
:1014B6002507A03E840083130008A000840A0008C4
:1014C6008403A100C130A2000A168A1100250A125F
:1014D6008A15831203136A08A5002507A23E840015
:1014E60083130008A000840A00088403A100913039
:1014F600A2000A168A1100250A128A1583160313FA
:10150600200883120313A0008316031321088312F5
:101516000313A100D130A2000A168A1100250A126F
:101526008A15D42A0B306A06031D9A2A9B2AD42AC6
:101536006A08A5002507A03E840083130008A000C2
:10154600840A00088403A100C130A2000A168A1189
:1015560000250A128A158316031320088312031323
:10156600A00083160313210883120313A1009130F0
:10157600A2000A168A1100250A128A158316031379
:10158600220883120313A000831603132308831271
:101596000313A100D130A2000A168A1100250A12EF
:1015A6008A150800FD2BFA012130FB00252CFA01D3
:1015B6002930FB00252CFA012D30FB00252C69086B
:1015C600003A0319DA2A013A0319D62A033A03190B
:1015D600DA2A013A0319DE2A073A0319DE2A252CEC
:1015E600FA012B30FB00252CFA013230FB00252CAA
:1015F600FA013930FB00252C6908003A0319F72A4D
:10160600013A0319F32A033A0319F72A013A03198F
:10161600FB2A073A0319FB2A252CFA011A30FB008C
:10162600252CFA011F30FB00252C6908003A031906
:10163600102B013A0319102B033A0319102B013A08
:101646000319142B073A0319142B252C0130FA0021
:101656001030FB00252C6908003A0319292B013AA2
:101666000319292B033A0319292B013A0319292BAC
:10167600073A0319292B252C0130FA002430FB00E8
:10168600252C6908003A03193F2B013A03193F2B11
:10169600033A03193F2B013A03193F2B073A031963
:1016A6003F2B252CFA011F30FB00FA012430FB00EA
:1016B600252C6908003A0319552B013A0319552BB5
:1016C600033A0319552B013A0319582B073A031904
:1016D600582B252CFA011D30FB00252C6908003AF1
:1016E60003196D2B013A03196D2B033A03196D2B60
:1016F600013A03196D2B073A03196D2B252CFA01B4
:101706002E30FB00252CFA013530FB00252C01304C
:10171600FA00FB01252C6908003A0319862B013AC9
:101726000319822B033A0319862B013A03198A2BD4
:10173600073A03198A2B252CFA011230FB00252CB7
:10174600FA011430FB00252C6908003A0319A32B73
:10175600013A03199F2B033A0319A32B013A0319E4
:10176600A32B073A0319A32B252CFA010F30FB00F4
:10177600252CFA011930FB00252C6908003A0319BB
:10178600A32B013A0319B82B033A0319A32B013AE9
:101796000319BC2B073A0319BC2B252CFA0123305D
:1017A600FB00252C0130FA002D30FB00252C6908A2
:1017B600003A0319D12B013A0319BC2B033A03193A
:1017C600D12B013A0319D52B073A0319D52B252C12
:1017D600F72A6908003A0319F72A013A0319EB2B8D
:1017E600033A0319F72A013A0319F72A073A0319A4
:1017F600F72A252C831203136A08003A0319E22AF2
:10180600013A0319FF2A033A0319182B013A03195F
:101816002E2B073A0319442B013A03195C2B033A82
:101826000319712B013A03198E2B0F3A0319A72BB3
:10183600013A0319C02B033A0319DA2B013A0319AB
:10184600EC2B252C08000A128A11E3270A128A15A6
:101856004F3083120313A0009030A1008130A20004
:101866000A168A1100250A128A15163083120313E6
:10187600A0009130A100C430A2000A168A110025EA
:101886000A128A15213083120313A0009030A1009A
:101896009130A2000A168A1100250A128A159B2C7D
:1018A600003083160313D2000030D1000B30D00075
:1018B600B830CF00013083120313E5000030E60094
:1018C6000030E7000030E800650883160313CF02F6
:1018D600831203136608031C660F722C752C83167D
:1018E6000313D002831203136708031C670F7C2CB3
:1018F6007F2C83160313D102831203136808031C7B
:10190600680F862C892C83160313D20283120313C5
:10191600831603134F0A031D9A2C500A031D9A2C93
:10192600510A031D9A2C520A031D9A2C9B2C5D2CDE
:1019360001300A168A117E250A128A152F3A031DCE
:10194600A52CA62C532C0A168A1121240A128A15B4
:101956000A128A1163270A128A1501300A168A1199
:101966007E250A128A1583160313D7000030D60087
:101976000030D5000B30D400B830D30001308312CC
:101986000313E5000030E6000030E7000030E80011
:10199600650883160313D302831203136608031C18
:1019A600660FD62CD92C83160313D4028312031385
:1019B6006708031C670FE02CE32C83160313D5027C
:1019C600831203136808031C680FEA2CED2C831698
:1019D6000313D6028312031383160313530A031D3C
:1019E600FE2C540A031DFE2C550A031DFE2C560A16
:1019F600031DFE2CFF2CC12C9930831603135706AA
:101A0600031D062D072D112D4503031D0B2D0C2D32
:101A1600112D0230C5002230C400902D9930570692
:101A2600031D162D172D512D02304506031D1C2DA5
:101A36001D2D512D0330C5000A168A1121240A12C4
:101A46008A15773083120313A0009030A1008030EE
:101A5600A2000A168A1100250A128A1590308312EE
:101A66000313A0009030A100C030A2000A168A110C
:101A760000250A128A15FA3083120313A00090304B
:101A8600A1009030A2000A168A1100250A128A15B2
:101A96000A128A15D5220A128A15902D2F3057065A
:101AA600031D562D572D642D44304506031D5C2D10
:101AB6005D2D642D0430C50083120313121507151E
:101AC600902D902D57080A128A15CE210A128A15D2
:101AD600A02D57080A168A115D270A128A15A02D0D
:101AE6002F305706031D782D792D7E2D0430C50025
:101AF6003330C400B02C1F305706031D832D842DB0
:101B0600A02D0130C5001130C400B02C57080A12B0
:101B16008A1133200A128A15A02D8316031345084D
:101B2600013A0319652D033A03196C2D013A03197D
:101B3600732D073A0319892DA02DFF308316031341
:101B4600C400B02C0A128A110C288312031323082E
:101B5600F2008030F2052308A8002807F400A21F2F
:101B6600B52DB62DB72D741474080319BB2DBC2DD5
:101B7600CC2D740A031DC02DC12DC92D0030A30024
:101B86000030A2000030A1000030A000A217A3017F
:101B9600D42D0030A3000030A2000030A100003098
:101BA600A0002708F3008030F305730872060319B6
:101BB600DD2DDE2DDF2D72172708A8002807F3007C
:101BC600A61FE62DE72DE82D731473080319EC2DD7
:101BD600ED2DFD2D730A031DF12DF22DFA2D00308A
:101BE600A7000030A6000030A5000030A400A6170C
:101BF600A701052E0030A7000030A6000030A50082
:101C06000030A4007408730203180A2E0B2E2F2E20
:101C1600721F0E2E0F2E112E8030F2067408F5005C
:101C26007308F4007508F3002008F5002408A000E6
:101C36007508A4002108F5002508A1007508A5006F
:101C46002208F5002608A2007508A6002308F5005C
:101C56002708A3007508A700F5017308A800A901C5
:101C66002908AB0074082802AA00031CAB032B0842
:101C7600803AFF0080307F02031D432E1A302A026D
:101C8600031C462E472E802E83120313230822049C
:101C960021042004031D502E522E0130532E0030F5
:101CA600F5000030A3000030A2000030A100003093
:101CB600A0007308F400862E751C622E632E6C2E0F
:101CC600750883120313A8000310280C0138F500C9
:101CD6006E2E0310F50C83120313201C732E742E24
:101CE600752EF5170130A800230DA30CA20CA10C2C
:101CF600A00CA80B772E0130F40773087402031C9E
:101D0600852E862E5F2E721B892E8A2ED52E74085E
:101D1600031D8E2E8F2E9A2E003083120313A300DE
:101D26000030A2000030A1000030A000FF2F831277
:101D360003132408A007250803110318013E0319FD
:101D4600A52EA107260803110318013E0319AC2E80
:101D5600A207270803110318013E0319B32EA30790
:101D6600231CB62EB72E8B2F751CBA2EBB2EC22E59
:101D76007508A8000310280C0138F500C42E0310BE
:101D8600F50C201CC72EC82EC92EF5170130A80049
:101D9600230DA30CA20CA10CA00CA80BCB2E01307A
:101DA600F4078B2F831203132308803AFF002708BA
:101DB600803A7F02031DE92E26082202031DE92E22
:101DC60025082102031DE92E240820020318EC2E03
:101DD600ED2E442FFF30A800FF30A900FF30AA00E7
:101DE600FF30AB002408AC002508AD002608AE0085
:101DF6002708AF002008AC022108031C210F042F7E
:101E0600052FAD022208031C220F0A2F0B2FAE024C
:101E16002308031C230F102F112FAF022C08A8072D
:101E26002D0803182D0F182F192FA9072E08031890
:101E36002E0F1E2F1F2FAA072F0803182F0AAB07D6
:101E46002B08A3002A08A2002908A1002808A00040
:101E56008030F2067503FF3AF5007508031D342F2E
:101E6600352F522F0130A007003003180130A1078B
:101E7600003003180130A207003003180130A30711
:101E8600522F2408A0022508031C250FA1022608AC
:101E9600031C260FA2022708031C270FA3022308F0
:101EA600220421042004031D592F5A2F872F750859
:101EB600031D5E2F5F2F872F0030A3000030A20086
:101EC6000030A1000030A000FF2F0130A800031051
:101ED600A00DA10DA20DA30DA80B6A2FF51F742F3F
:101EE600752F762F2014751C792F7A2F7E2F0314C9
:101EF600750DF500802F0310F50D74080319842F56
:101F0600852F872F0130F402A21F8A2F8B2F682F6F
:101F1600F301F51F8F2F902F9E2F75087F39031918
:101F2600952F962F992F0130F3009E2F201C9C2F62
:101F36009D2F9E2F962F73080319A22FA32FD52FFF
:101F46000130A007003003180130A1070030031844
:101F56000130A207003003180130A307231CB42F59
:101F6600B52FD52F2008A8002108A9002208AA000D
:101F76002308AB000130AC002B0DAB0CAA0CA90C4E
:101F8600A80CAC0BBF2F2B08A3002A08A200290817
:101F9600A1002808A000740A0319D22FD32FD52F29
:101FA6000130F407740A0319D92FDA2FDF2F7408CA
:101FB600031DDE2FDF2FED2F0030A3000030A2001F
:101FC6000030A1000030A0007408031DEB2FEC2F99
:101FD600ED2FF201741CF02FF12FF32FA217F52F1E
:101FE6007F30A2057408A8000310280CA300F21F76
:101FF600FD2FFE2FFF2FA3170800503472346F34C5
:102006006734723461346D34203443346F346D3444
:1020160070346C3465347434653400345734413468
:102026005334483449344E344734203450345234CF
:102036004F344734523441344D34003457346134CC
:102046007334683469346E34673420344D34613403
:102056006334683469346E346534003450346C3417
:102066007334203443346C346F3473346534203421
:1020760044346F346F3472340034523465346D3402
:102086006F3476346534203443346C346F347434AE
:1020960068346534733400345034723465347334C0
:1020A600733420344B346534793435342034743405
:1020B6006F340034573461347434653472342034E8
:1020C6004C346534763465346C343A3400344434F4
:1020D6006F346F34723420346934733420344F349F
:1020E600703465346E34003450347234653473346D
:1020F6007334203453347734693474346334683435
:10210600003450346F3477346534723469346E3445
:10211600673420344F344E34003453345734353416
:102126003A34203453345434413452345434203401
:1021360000345334573435343A34533454344134F8
:10214600523454342034003441347134753461349B
:102156002034533474346F34723465340034533459
:102166007434613469346E342034573461347334D2
:1021760068340034453463346F3463346F347434F4
:1021860074346F346E3473340034463475346E34BC
:102196006334743469346F346E343A3400345334EF
:1021A600573436343A345034413455345334453444
:1021B60000344234653464347334683465346534C9
:1021C60074347334003457346134733468342034CF
:1021D6004F346E346C3479340034523469346E348E
:1021E600733465342B3444347234793400345334C4
:1021F600573436343A342034533454344F3450340C
:102206000034443465346C34693463346134743472
:10221600653400344F346E346C34793420344434AD
:1022260072347934003450346F3477346534723410
:1022360020344F344E34003457346F346F346C349A
:1022460065346E34733400344D3465346434693423
:1022560075346D34003457346834693474346534F5
:1022660073340034543469346D3465343A3400348C
:10227600503472346F3467343A340034523469342B
:102286006E347334653400344434613469346C34E8
:102296007934003448346534613476347934003422
:1022A600543469346D3465340034483469346734E1
:1022B600683400345334703469346E340034413435
:1022C600753474346F3400344C346F3477340034DE
:1022D6004D34613478340034FF1B792983137F1819
:1022E60083170008840A0319FF0A08007F087F394C
:0C22F6008A000408840A0319FF0A820011
:10281400831603138801091189100A168A11D42515
:102824000A168A110800831203131211FA30831650
:10283400031392008C14831203138C100800F2010A
:1028440001300A168A116D240A168A110430F70021
:102854003D30F600F60B2C2CF70B2C2C312C0800F9
:10286400F400F301741C372C382C3A2C7208F3074B
:102874000310F20D0310F40C7408031D422C432CB6
:10288400342C730808007E088A007F0882000A1628
:102894008A1145240A168A118000840A04087D06D8
:1028A40003190034FF0A0319FE0A492C8312031387
:1028B400A400F20178080A168A116D240A168A11F6
:1028C400F201F20A8312031324080A168A116D24F2
:1028D4000A168A110800F5007218712C752C8312DF
:1028E40003130915782C8312031309117508880042
:1028F4008914A630F300F30B7D2C0000831203131C
:1029040089101B30F4009E30F300F30B872CF40B7A
:10291400872C00000800803083120313C7064B087D
:10292400A3004A08A2004908A1004808A0004708DB
:10293400A7004608A6004508A5004408A4000A12FA
:102944008A15A8250A168A11831203132308C700BF
:102954002208C6002108C5002008C4000800473426
:1029640091344D349134043491342E349134B2344E
:102974009034BD3490341F349134E6349034A73409
:102984009034DC349034F03490340D349134623427
:1029940091346734913427349134583491346B34FE
:1029A4009134013401341134013483120313A4002B
:1029B400A001A1017208F400F5017408A2007508D1
:1029C400A300241CE62CE72CED2C2208A0070318F6
:1029D400A10A2308A10701300310A20DA30DFF3E95
:1029E400031DEE2C0310A40C2408031DFA2CFB2C4D
:1029F400E32C2108F3002008F2000800F2018312FE
:102A0400031322080A168A116D240A168A11222D2C
:102A1400F201F20A2108FF00200884000A168A1134
:102A24006F210A168A110A168A116D240A168A1150
:102A3400013083120313A0070318A10A0030A10771
:102A4400831203132108FF00200884000A168A1148
:102A54006F210A168A11003A031D312D322D0A2DD9
:102A64000800831203138C1C382D392D772D013067
:102A740083160313C607003003180130C70700305C
:102A840003180130C807003003180130C90720308B
:102A940046064E300319470648044904031D532DC6
:102AA400542D742D7B080319582D592D5C2D01309C
:102AB400FB026A2D7B08031D602D612D6A2D7A08A7
:102AC4000319652D662D6A2D0130FA023C30FB0096
:102AD400003083160313C9000030C8000030C7005B
:102AE4000030C600831203138C1071088A00700E24
:102AF4008300FE0E7E0E0900831203130608F20003
:102B04003F30F2053F3072060319892D8A2D962D28
:102B14008316031343080319902D912D962DC30199
:102B2400C2017208CE00D22D3F307206031D9B2DC8
:102B34009C2DAD2D831603134308031DA22DA32D35
:102B4400AD2D0130C3000F3042020318AA2DAB2D66
:102B5400D22D4E08D32D831603134308031DB32D22
:102B6400B42DBD2D103042020318B92DBA2DBD2D40
:102B74000130C207D22D4308031DC12DC22DD22D11
:102B840010304206031DC72DC82DD22D37307206D2
:102B9400031DCD2DCE2DD22D0130C2079930D32D5A
:102BA4003F300800C330F700CD30F600F60BD82DC7
:102BB400F70BD82DF20133300A168A116D240A1648
:102BC4008A111B30F7009E30F600F60BE72DF70B49
:102BD400E72D0000F20133300A168A116D240A161B
:102BE4008A11A630F600F60BF52D0000F201333001
:102BF4000A168A116D240A168A11002E012E00006D
:102C0400F2013C300A168A116D240A168A11A63084
:102C1400F600F60B0B2E0000F20101300A168A11A1
:102C24006D240A168A110430F7003D30F600F60BC5
:102C3400192EF70B192E1E2EF2010C300A168A11CA
:102C44006D240A168A11A630F600F60B272E000012
:102C54000800F701F51F2F2E302E372EF409F50941
:102C6400F40A0319F50A0130F700F31F3A2E3B2E3C
:102C7400402EF209F309F20A0319F30A72087304E5
:102C84000319452E462E732E0130F600522E0130C4
:102C94000310F20DF30DFF3E031D4A2E0130F6071B
:102CA400F31F552E562E492E73087502031D5C2EF4
:102CB40072087402031C5F2E602E662E7208F402E2
:102CC4007308031CF503F50201300310F30CF20C36
:102CD400FF3E031D672E0130F602031D722E732E74
:102CE400562E77080319772E782E7D2EF409F509D0
:102CF400F40A0319F50A7508F3007408F2000800D1
:102D040083120313A101F31F882E892E902EF2093A
:102D1400F309F20A0319F30A0130A100F51F932EF7
:102D2400942E9B2EF409F509F40A0319F50A0130CF
:102D3400A106A201A301720873040319A22EA32EF3
:102D4400D82E0130A000AF2E01300310F20DF30D88
:102D5400FF3E031DA72E0130A007F31FB22EB32E92
:102D6400A62E01300310A20DA30DFF3E031DB42EA9
:102D740073087502031DC02E72087402031CC32E4F
:102D8400C42ECB2E7208F4027308031CF503F5025B
:102D9400221401300310F30CF20CFF3E031DCC2E61
:102DA4000130A002031DD72ED82EB32E21080319FB
:102DB400DC2EDD2EE22EA209A309A20A0319A30A1E
:102DC4002308F3002208F2000800031083120313FF
:102DD400460D470DF7007708031DF12EF22EFB2E4A
:102DE4000030C7000030C6000030C5000030C40009
:102DF4005C2F4408C8004508C9004608CA004708B3
:102E0400CB001F300310CB0CCA0CC90CC80CFF3EFE
:102E1400031D042F4808F600C617FF30C405FF3011
:102E2400C505FF30C6050030C7059630F702F71F09
:102E34001C2F1D2F352F7708803A973E0318232F18
:102E4400242F252FF22E01300310C70CC60CC50CFD
:102E5400C40CFF3E031D262F0130F707031D332F3B
:102E6400342F252F4C2F20307702031C3A2F3B2F71
:102E7400472FF22E0130C8000310C40DC50DC60D36
:102E8400C70DC80B3E2F0130F7027708031D4B2FE7
:102E94004C2F3C2F76080319502F512F5C2FC40957
:102EA400C509C609C709C40A0319C50A0319C60A0C
:102EB4000319C70A080083120313A70002308316FC
:102EC40003134406031D672F682F712F0A168A11F6
:102ED40021240A168A11FF3083160313C4003730E5
:102EE400831203132706031D782F792F892F0A16BF
:102EF4008A1121240A168A11013083120313E90767
:102F040005306906031D872F882F892FE9015D305D
:102F1400A0009030A1008030A2000A168A1100257A
:102F24000A168A11C030F8002A300A168A11582469
:102F34000A168A11831203136908A5002507B83EEF
:102F4400840083130008A000840A00088403A100FD
:102F5400C230A2000A168A1100250A168A11053009
:102F6400F2000030F300831203136908013EF400F9
:102F7400003003180130F5000A168A112B260A16B0
:102F84008A11720883120313A5002507B83E840032
:102F940083130008A000840A00088403A10092306F
:102FA400A2000A168A1100250A168A110530F200B9
:102FB4000030F300831203136908023EF40000306A
:102FC40003180130F5000A168A112B260A168A11F5
:102FD400720883120313A5002507B83E84008313E7
:102FE4000008A000840A00088403A100D230A200D3
:0C2FF4000A168A1100250A168A1108002E
:02400E00FB3F76
:00000001FF
